{
  "transactions": [
    {
      "hash": "0xa5e6bdc43dad360f295d930ec2e56788395c750f1b78db949a6cbfbf6fb4a0b7",
      "transactionType": "CALL",
      "contractName": null,
      "contractAddress": "0x6eafed4fa103d2de04ddee157e35a8e8df91b6a6",
      "function": "update((address,address,address,address,address,address,address,address,address,address,address,address,address,address),string)",
      "arguments": [
        "(0x9449B15268bE7042C0b473F3f711a41A29220866, 0x22366D6dabb03062Bc0a5E893EfDff15D8E329b1, 0x66585C2F96cAe05EA360F6dBF76bA092A7B87669, 0xC98B402CAB9156da68A87a69E3B4bf167A3CCcF6, 0x578f8d1bd82E8D6268E329d664d663B4d985BE61, 0xD5c2851B00090c92Ba7F4723FB548bb30C9B6865, 0x359F76a54F9A345546E430e4d6665A7dC9DaECd4, 0xd52d8Be9728976E0D70C89db9F8ACeb5B5e97cA2, 0x94519194Bf17865770faD59eF581feC512Ae99c9, 0xb60B62357b90F254f555f03B162a30E22890e3B5, 0xf898A8A2cF9900A588B174d9f96349BBA95e57F3, 0x809c1D997Eab3531Eb2d01FCD5120Ac786D850D6, 0xF61b75E4903fbC81169FeF8b7787C13cB7750601, 0x5ebd301cEF0C908AB17Fd183aD9c274E4B34e9d6)",
        "v3.1.0"
      ],
      "transaction": {
        "from": "0x59a32a792d0f25b0e0a4a4afbfdf514b94b102fb",
        "to": "0x6eafed4fa103d2de04ddee157e35a8e8df91b6a6",
        "gas": "0x2f29e",
        "value": "0x0",
        "input": "0x1c427f9c0000000000000000000000009449b15268be7042c0b473f3f711a41a2922086600000000000000000000000022366d6dabb03062bc0a5e893efdff15d8e329b100000000000000000000000066585c2f96cae05ea360f6dbf76ba092a7b87669000000000000000000000000c98b402cab9156da68a87a69e3b4bf167a3cccf6000000000000000000000000578f8d1bd82e8d6268e329d664d663b4d985be61000000000000000000000000d5c2851b00090c92ba7f4723fb548bb30c9b6865000000000000000000000000359f76a54f9a345546e430e4d6665a7dc9daecd4000000000000000000000000d52d8be9728976e0d70c89db9f8aceb5b5e97ca200000000000000000000000094519194bf17865770fad59ef581fec512ae99c9000000000000000000000000b60b62357b90f254f555f03b162a30e22890e3b5000000000000000000000000f898a8a2cf9900a588b174d9f96349bba95e57f3000000000000000000000000809c1d997eab3531eb2d01fcd5120ac786d850d6000000000000000000000000f61b75e4903fbc81169fef8b7787c13cb77506010000000000000000000000005ebd301cef0c908ab17fd183ad9c274e4b34e9d600000000000000000000000000000000000000000000000000000000000001e0000000000000000000000000000000000000000000000000000000000000000676332e312e300000000000000000000000000000000000000000000000000000",
        "nonce": "0x64",
        "chainId": "0x2105"
      },
      "additionalContracts": [],
      "isFixedGasLimit": false
    },
    {
      "hash": "0x9ce58626391c514d5943c6f867b70e2774700d07596a20dcc24dd095f8760dc2",
      "transactionType": "CALL",
      "contractName": null,
      "contractAddress": "0x6eafed4fa103d2de04ddee157e35a8e8df91b6a6",
      "function": "setExtension(bytes32,address)",
      "arguments": [
        "0x21f9566ec153f3966c6abd165ef47924794d755a886cb342bbefca60a12c8719",
        "0x4F5A38Bb746d7E5d49d8fd26CA6beD141Ec2DDb3"
      ],
      "transaction": {
        "from": "0x59a32a792d0f25b0e0a4a4afbfdf514b94b102fb",
        "to": "0x6eafed4fa103d2de04ddee157e35a8e8df91b6a6",
        "gas": "0x11bc6",
        "value": "0x0",
        "input": "0x0d799b8521f9566ec153f3966c6abd165ef47924794d755a886cb342bbefca60a12c87190000000000000000000000004f5a38bb746d7e5d49d8fd26ca6bed141ec2ddb3",
        "nonce": "0x65",
        "chainId": "0x2105"
      },
      "additionalContracts": [],
      "isFixedGasLimit": false
    }
  ],
  "receipts": [
    {
      "status": "0x1",
      "cumulativeGasUsed": "0x24066df",
      "logs": [
        {
          "address": "0x6eafed4fa103d2de04ddee157e35a8e8df91b6a6",
          "topics": [
            "0x56dc81ea5a6b125cd84748a38d2a64fef2eec9424ca845f50bc90975c05451f4",
            "0x0000000000000000000000009449b15268be7042c0b473f3f711a41a29220866",
            "0x00000000000000000000000022366d6dabb03062bc0a5e893efdff15d8e329b1",
            "0x00000000000000000000000066585c2f96cae05ea360f6dbf76ba092a7b87669"
          ],
          "data": "0x0000000000000000000000000000000000000000000000000000000000000040000000000000000000000000d52d8be9728976e0d70c89db9f8aceb5b5e97ca2000000000000000000000000000000000000000000000000000000000000000676332e312e300000000000000000000000000000000000000000000000000000",
          "blockHash": "0x0000000000000000000000000000000000000000000000000000000000000000",
          "blockNumber": "0x29c2398",
          "blockTimestamp": "0x69c2a413",
          "transactionHash": "0xa5e6bdc43dad360f295d930ec2e56788395c750f1b78db949a6cbfbf6fb4a0b7",
          "transactionIndex": "0xcf",
          "logIndex": "0x2ea",
          "removed": false
        }
      ],
      "logsBloom": "0x00000000000000000080000400000000000000000000000000000000000000000000000000000000000000000000000000000000000000000000000000000000000000000000000000000000000000000000000004000000000000000000000004000000000000000200000000000000000000000000000000000000000000000000000000000000000004000000000000000000000800000000000000000000000800000080000000000040000000000000000000000000000000000000400000000000000000000000000000000000000000000000000000000000000020000000000401000000000000010000000000000000000000000000000000000000",
      "type": "0x2",
      "transactionHash": "0xa5e6bdc43dad360f295d930ec2e56788395c750f1b78db949a6cbfbf6fb4a0b7",
      "transactionIndex": "0xcf",
      "blockHash": "0x0000000000000000000000000000000000000000000000000000000000000000",
      "blockNumber": "0x29c2398",
      "gasUsed": "0x22255",
      "effectiveGasPrice": "0x4faf10",
      "blobGasUsed": "0xcff5",
      "from": "0x59a32a792d0f25b0e0a4a4afbfdf514b94b102fb",
      "to": "0x6eafed4fa103d2de04ddee157e35a8e8df91b6a6",
      "contractAddress": null,
      "daFootprintGasScalar": "0x8b",
      "l1BaseFeeScalar": "0x8dd",
      "l1BlobBaseFee": "0x8de060",
      "l1BlobBaseFeeScalar": "0x101c12",
      "l1Fee": "0x78cac28a",
      "l1GasPrice": "0x8e28e27",
      "l1GasUsed": "0x17f3"
    },
    {
      "status": "0x1",
      "cumulativeGasUsed": "0x24128e8",
      "logs": [
        {
          "address": "0x6eafed4fa103d2de04ddee157e35a8e8df91b6a6",
          "topics": [
            "0xa2170b3ffce5719028d19f940e4023798f0a56671446c60df8a5c4800b97fec8",
            "0x21f9566ec153f3966c6abd165ef47924794d755a886cb342bbefca60a12c8719",
            "0x0000000000000000000000004f5a38bb746d7e5d49d8fd26ca6bed141ec2ddb3"
          ],
          "data": "0x",
          "blockHash": "0x0000000000000000000000000000000000000000000000000000000000000000",
          "blockNumber": "0x29c2398",
          "blockTimestamp": "0x69c2a413",
          "transactionHash": "0x9ce58626391c514d5943c6f867b70e2774700d07596a20dcc24dd095f8760dc2",
          "transactionIndex": "0xd0",
          "logIndex": "0x2eb",
          "removed": false
        }
      ],
      "logsBloom": "0x00008000000000000000000000000000000000000000000000000000000000000000000000000000000000000000000000000002000000000000000000000000002000000000000000000000000000000000000000000000000000000000000000000000000000000000000000000000000000000000000000000000000000000000000000000000000104000000000000000000000000000000000008000000000000000000000000020000000000000000400002000000000000000000200000000000000000000000000000000000000000000000000000000000000000000000000401000000000000000000000000000000000000000000000000000000",
      "type": "0x2",
      "transactionHash": "0x9ce58626391c514d5943c6f867b70e2774700d07596a20dcc24dd095f8760dc2",
      "transactionIndex": "0xd0",
      "blockHash": "0x0000000000000000000000000000000000000000000000000000000000000000",
      "blockNumber": "0x29c2398",
      "gasUsed": "0xc209",
      "effectiveGasPrice": "0x4faf10",
      "blobGasUsed": "0x3762",
      "from": "0x59a32a792d0f25b0e0a4a4afbfdf514b94b102fb",
      "to": "0x6eafed4fa103d2de04ddee157e35a8e8df91b6a6",
      "contractAddress": null,
      "daFootprintGasScalar": "0x8b",
      "l1BaseFeeScalar": "0x8dd",
      "l1BlobBaseFee": "0x8de060",
      "l1BlobBaseFeeScalar": "0x101c12",
      "l1Fee": "0x78cac28a",
      "l1GasPrice": "0x8e28e27",
      "l1GasUsed": "0x66f"
    }
  ],
  "libraries": [],
  "pending": [],
  "returns": {},
  "timestamp": 1774363666890,
  "chain": 8453,
  "commit": "304d9b4"
}